{
  "_format": "hh-sol-artifact-1",
  "contractName": "realToken",
  "sourceName": "contracts/realToken.sol",
  "abi": [
    {
      "inputs": [],
      "stateMutability": "nonpayable",
      "type": "constructor"
    },
    {
      "anonymous": false,
      "inputs": [
        {
          "indexed": true,
          "internalType": "address",
          "name": "_buyer",
          "type": "address"
        },
        {
          "indexed": false,
          "internalType": "uint256",
          "name": "_ethAmount",
          "type": "uint256"
        },
        {
          "indexed": false,
          "internalType": "uint256",
          "name": "_tokenAmount",
          "type": "uint256"
        }
      ],
      "name": "TokensPurchased",
      "type": "event"
    },
    {
      "anonymous": false,
      "inputs": [
        {
          "indexed": true,
          "internalType": "address",
          "name": "_from",
          "type": "address"
        },
        {
          "indexed": true,
          "internalType": "address",
          "name": "_to",
          "type": "address"
        },
        {
          "indexed": false,
          "internalType": "uint256",
          "name": "_value",
          "type": "uint256"
        }
      ],
      "name": "Transfer",
      "type": "event"
    },
    {
      "inputs": [
        {
          "internalType": "address",
          "name": "account",
          "type": "address"
        }
      ],
      "name": "balanceOf",
      "outputs": [
        {
          "internalType": "uint256",
          "name": "",
          "type": "uint256"
        }
      ],
      "stateMutability": "view",
      "type": "function"
    },
    {
      "inputs": [],
      "name": "buyTokens",
      "outputs": [],
      "stateMutability": "payable",
      "type": "function"
    },
    {
      "inputs": [],
      "name": "contractBalance",
      "outputs": [
        {
          "internalType": "uint256",
          "name": "",
          "type": "uint256"
        }
      ],
      "stateMutability": "view",
      "type": "function"
    },
    {
      "inputs": [],
      "name": "name",
      "outputs": [
        {
          "internalType": "string",
          "name": "",
          "type": "string"
        }
      ],
      "stateMutability": "view",
      "type": "function"
    },
    {
      "inputs": [],
      "name": "owner",
      "outputs": [
        {
          "internalType": "address",
          "name": "",
          "type": "address"
        }
      ],
      "stateMutability": "view",
      "type": "function"
    },
    {
      "inputs": [],
      "name": "rate",
      "outputs": [
        {
          "internalType": "uint256",
          "name": "",
          "type": "uint256"
        }
      ],
      "stateMutability": "view",
      "type": "function"
    },
    {
      "inputs": [],
      "name": "symbol",
      "outputs": [
        {
          "internalType": "string",
          "name": "",
          "type": "string"
        }
      ],
      "stateMutability": "view",
      "type": "function"
    },
    {
      "inputs": [],
      "name": "totalSupply",
      "outputs": [
        {
          "internalType": "uint256",
          "name": "",
          "type": "uint256"
        }
      ],
      "stateMutability": "view",
      "type": "function"
    },
    {
      "inputs": [
        {
          "internalType": "address",
          "name": "to",
          "type": "address"
        },
        {
          "internalType": "uint256",
          "name": "amount",
          "type": "uint256"
        }
      ],
      "name": "transfer",
      "outputs": [],
      "stateMutability": "nonpayable",
      "type": "function"
    },
    {
      "inputs": [
        {
          "internalType": "uint256",
          "name": "amount",
          "type": "uint256"
        }
      ],
      "name": "withdraw",
      "outputs": [],
      "stateMutability": "nonpayable",
      "type": "function"
    }
  ],
  "bytecode": "0x60c0604052601060809081526f26bc902430b9323430ba102a37b5b2b760811b60a05260009061002f908261013f565b5060408051808201909152600381526213521560ea1b6020820152600190610057908261013f565b50620f42406002556103e860035534801561007157600080fd5b5060025433600081815260056020526040902091909155600480546001600160a01b03191690911790556101fd565b634e487b7160e01b600052604160045260246000fd5b600181811c908216806100ca57607f821691505b6020821081036100ea57634e487b7160e01b600052602260045260246000fd5b50919050565b601f82111561013a57806000526020600020601f840160051c810160208510156101175750805b601f840160051c820191505b818110156101375760008155600101610123565b50505b505050565b81516001600160401b03811115610158576101586100a0565b61016c8161016684546100b6565b846100f0565b6020601f8211600181146101a057600083156101885750848201515b600019600385901b1c1916600184901b178455610137565b600084815260208120601f198516915b828110156101d057878501518255602094850194600190920191016101b0565b50848210156101ee5786840151600019600387901b60f8161c191681555b50505050600190811b01905550565b6106e38061020c6000396000f3fe6080604052600436106100915760003560e01c80638b7afe2e116100595780638b7afe2e146101535780638da5cb5b1461016657806395d89b411461019e578063a9059cbb146101b3578063d0febe4c146101d357600080fd5b806306fdde031461009657806318160ddd146100c15780632c4e722e146100e55780632e1a7d4d146100fb57806370a082311461011d575b600080fd5b3480156100a257600080fd5b506100ab6101db565b6040516100b8919061054b565b60405180910390f35b3480156100cd57600080fd5b506100d760025481565b6040519081526020016100b8565b3480156100f157600080fd5b506100d760035481565b34801561010757600080fd5b5061011b610116366004610599565b610269565b005b34801561012957600080fd5b506100d76101383660046105ce565b6001600160a01b031660009081526005602052604090205490565b34801561015f57600080fd5b50476100d7565b34801561017257600080fd5b50600454610186906001600160a01b031681565b6040516001600160a01b0390911681526020016100b8565b3480156101aa57600080fd5b506100ab610306565b3480156101bf57600080fd5b5061011b6101ce3660046105f0565b610313565b61011b6103fb565b600080546101e89061061a565b80601f01602080910402602001604051908101604052809291908181526020018280546102149061061a565b80156102615780601f1061023657610100808354040283529160200191610261565b820191906000526020600020905b81548152906001019060200180831161024457829003601f168201915b505050505081565b6004546001600160a01b031633146102c85760405162461bcd60e51b815260206004820152601b60248201527f4f6e6c7920746865206f776e65722063616e207769746864726177000000000060448201526064015b60405180910390fd5b6004546040516001600160a01b039091169082156108fc029083906000818181858888f19350505050158015610302573d6000803e3d6000fd5b5050565b600180546101e89061061a565b336000908152600560205260409020548111156103665760405162461bcd60e51b81526020600482015260116024820152704e6f7420656e6f75676820746f6b656e7360781b60448201526064016102bf565b336000908152600560205260408120805483929061038590849061066a565b90915550506001600160a01b038216600090815260056020526040812080548392906103b2908490610683565b90915550506040518181526001600160a01b0383169033907fddf252ad1be2c89b69c2b068fc378daa952ba7f163c4a11628f55a4df523b3ef9060200160405180910390a35050565b60006003543461040b9190610696565b6004546001600160a01b03166000908152600560205260409020549091508111156104785760405162461bcd60e51b815260206004820152601d60248201527f4e6f7420656e6f75676820746f6b656e7320696e20636f6e747261637400000060448201526064016102bf565b6004546001600160a01b0316600090815260056020526040812080548392906104a290849061066a565b909155505033600090815260056020526040812080548392906104c6908490610683565b909155505060045460405182815233916001600160a01b0316907fddf252ad1be2c89b69c2b068fc378daa952ba7f163c4a11628f55a4df523b3ef9060200160405180910390a3604080513481526020810183905233917f8fafebcaf9d154343dad25669bfa277f4fbacd7ac6b0c4fed522580e040a0f33910160405180910390a250565b602081526000825180602084015260005b81811015610579576020818601810151604086840101520161055c565b506000604082850101526040601f19601f83011684010191505092915050565b6000602082840312156105ab57600080fd5b5035919050565b80356001600160a01b03811681146105c957600080fd5b919050565b6000602082840312156105e057600080fd5b6105e9826105b2565b9392505050565b6000806040838503121561060357600080fd5b61060c836105b2565b946020939093013593505050565b600181811c9082168061062e57607f821691505b60208210810361064e57634e487b7160e01b600052602260045260246000fd5b50919050565b634e487b7160e01b600052601160045260246000fd5b8181038181111561067d5761067d610654565b92915050565b8082018082111561067d5761067d610654565b808202811582820484141761067d5761067d61065456fea26469706673582212204c865008d13907b6b57025d70bc816b9a481b9904ce41f16e988fd493965b7c664736f6c634300081c0033",
  "linkReferences": {},
  "deployedLinkReferences": {}
}